:020000040000FA
:100000000C9434000C943E000C943E000C943E0082
:100010000C943E000C943E000C943E000C943E0068
:100020000C943E000C943E000C943E000C943E0058
:100030000C943E000C943E000C943E000C943E0048
:100040000C943E000C943E000C943E000C943E0038
:100050000C943E000C943E000C943E000C943E0028
:100060000C943E000C943E0011241FBECFEFD8E04C
:10007000DEBFCDBF0E9440000C943A010C940000FA
:1000800088278093C0008093C50087E68093C400D2
:1000900088E18093C10086E08093C20070E387E02E
:1000A0000FEF0AB904B928986CD030D079D000ECA1
:1000B0003ED067D030E384C0B091C000B5FFFCCF24
:1000C0000895702F007F0295005DC02FCA530AF477
:1000D0000895095FFDCF072F0F70005DC02FCA5331
:1000E0000AF40895095FFDCF0D2FEBDFE5DF0093E4
:1000F000C600F1DFE1DF0093C600DEDF0AE0009317
:10010000C600DADF0DE00093C600089503E30FD0C8
:1001100038D002E30CD035D008E209D032D00CE060
:1001200006D001E004D02DD006E001D00895B02F14
:10013000B07FBBB92998289A1CD028981DD0B02F21
:10014000B295B07FBBB9289A14D0289815D00895DD
:10015000B02FB07FBBB9299A289A0BD028980CD021
:10016000B02FB295B07FBBB9289A03D0289804D09D
:1001700008950000000008954AE5FBDF4A95E9F77D
:10018000089558E2F9DF5A95E9F708954FEF5FEFC8
:1001900068E26A95F1F75A95D9F74A95C1F708953B
:1001A000F1E0E0EB0591003011F0D2DFFBCF0895D4
:1001B00048756D6964697479204C6576656C203A80
:1001C0002BD034D038D090DF992777270D2F0436E5
:1001D0001AF093950456FBCF0A301AF073950A5023
:1001E000FBCF0F93B5DFB4DFB3DFB2DFB1DFB0DF3A
:1001F000AFDFAEDFADDFACDFABDFAADFA9DFA8DFAB
:10020000072F030FA5DF0F91030FA2DFB0E0BEDFC2
:1002100000EC8DDFB6DFD4CF50E95093BA0054E044
:100220005093BC0054EC5093BC0008955091BC0016
:1002300057FFFCCF089554EC5093BC005091BC0084
:1002400057FFFCCFD091BB00089545E8409385004F
:100250004DEE4093840040E04093800045E04093A1
:10026000810046B340FF93CF41E046BB40E040935E
:0802700081000895F894FFCF0E
:107E0000112484B714BE81FFF0D085E080938100F7
:107E100082E08093C00088E18093C10086E0809377
:107E2000C20080E18093C4008EE0C9D0259A86E02C
:107E300020E33CEF91E0309385002093840096BBD3
:107E4000B09BFECF1D9AA8958150A9F7CC24DD24C4
:107E500088248394B5E0AB2EA1E19A2EF3E0BF2EE7
:107E6000A2D0813461F49FD0082FAFD0023811F036
:107E7000013811F484E001C083E08DD089C08234E0
:107E800011F484E103C0853419F485E0A6D080C0E4
:107E9000853579F488D0E82EFF2485D0082F10E0AE
:107EA000102F00270E291F29000F111F8ED06801E7
:107EB0006FC0863521F484E090D080E0DECF843638
:107EC00009F040C070D06FD0082F6DD080E0C81688
:107ED00080E7D80618F4F601B7BEE895C0E0D1E017
:107EE00062D089930C17E1F7F0E0CF16F0E7DF06D8
:107EF00018F0F601B7BEE89568D007B600FCFDCFD4
:107F0000A601A0E0B1E02C9130E011968C91119780
:107F100090E0982F8827822B932B1296FA010C0160
:107F200087BEE89511244E5F5F4FF1E0A038BF0790
:107F300051F7F601A7BEE89507B600FCFDCF97BE46
:107F4000E89526C08437B1F42ED02DD0F82E2BD052
:107F50003CD0F601EF2C8F010F5F1F4F84911BD097
:107F6000EA94F801C1F70894C11CD11CFA94CF0C13
:107F7000D11C0EC0853739F428D08EE10CD085E9AC
:107F80000AD08FE07ACF813511F488E018D01DD067
:107F900080E101D065CF982F8091C00085FFFCCF94
:107FA0009093C60008958091C00087FFFCCF809118
:107FB000C00084FD01C0A8958091C6000895E0E648
:107FC000F0E098E1908380830895EDDF803219F02E
:107FD00088E0F5DFFFCF84E1DECF1F93182FE3DFCA
:107FE0001150E9F7F2DF1F91089580E0E8DFEE27F6
:047FF000FF270994CA
:027FFE00040479
:00000001FF
