:100000000C9434000C943E000C943E000C943E0082
:100010000C943E000C943E000C943E000C943E0068
:100020000C943E000C943E000C943E000C943E0058
:100030000C943E000C943E000C943E000C943E0048
:100040000C943E000C943E000C943E000C943E0038
:100050000C943E000C943E000C943E000C943E0028
:100060000C943E000C943E0011241FBECFEFD8E04C
:10007000DEBFCDBF0E9440000C943B010C940000F9
:1000800088278093C0008093C50087E68093C400D2
:1000900088E18093C10086E08093C20070E387E02E
:1000A0000FEF0AB904B928986CD030D079D000ECA1
:1000B0003ED067D030E384C0B091C000B5FFFCCF24
:1000C0000895702F007F0295005DC02FCA530AF477
:1000D0000895095FFDCF072F0F70005DC02FCA5331
:1000E0000AF40895095FFDCF0D2FEBDFE5DF0093E4
:1000F000C600F1DFE1DF0093C600DEDF0AE0009317
:10010000C600DADF0DE00093C600089503E30FD0C8
:1001100038D002E30CD035D008E209D032D00CE060
:1001200006D001E004D02DD006E001D00895B02F14
:10013000B07FBBB92998289A1CD028981DD0B02F21
:10014000B295B07FBBB9289A14D0289815D00895DD
:10015000B02FB07FBBB9299A289A0BD028980CD021
:10016000B02FB295B07FBBB9289A03D0289804D09D
:1001700008950000000008954AE5FBDF4A95E9F77D
:10018000089558E2F9DF5A95E9F708954FEF5FEFC8
:1001900068E26A95F1F75A95D9F74A95C1F708953B
:1001A000F1E0E0EB0591003011F0D2DFFBCF0895D4
:1001B00048756D6964697479204C6576656C203A80
:1001C00045D02BD034D038D08FDF992777270D2F0B
:1001D00004361AF093950456FBCF0A301AF0739543
:1001E0000A50FBCF0F93B4DFB3DFB2DFB1DFB0DF74
:1001F000AFDFAEDFADDFACDFABDFAADFA9DFA8DFAB
:10020000A7DF072F030FA4DF0F91030FA1DFB0E0DB
:10021000BDDF00EC8CDFB5DFD3CF50E95093BA00DF
:1002200054E05093BC0054EC5093BC00089550919E
:10023000BC0057FFFCCF089554EC5093BC00509184
:10024000BC0057FFFCCFD091BB00089545E8409318
:1002500085004DEE4093840040E04093800045E0EF
:100260004093810046B340FF92CF41E046BB40E05F
:0A027000409381000895F894FFCF39
:00000001FF
