:100000000C9434000C943E000C943E000C943E0082
:100010000C943E000C943E000C943E000C943E0068
:100020000C943E000C943E000C943E000C943E0058
:100030000C943E000C943E000C943E000C943E0048
:100040000C943E000C943E000C943E000C943E0038
:100050000C943E000C943E000C943E000C943E0028
:100060000C943E000C943E0011241FBECFEFD8E04C
:10007000DEBFCDBF0E9440000C94D1000C94000064
:10008000579A09E171E07DBB72E070936900789442
:1000900051E05093B9005CE05093B80054E05093A5
:1000A000BC00222733270130D8F40030D1F00A9564
:1000B00019D0B0E91FD0B32F1DD026D0219A29988E
:1000C00037D0299A21981999FECF199BFECF1999FB
:1000D000FECF1ED0322F1CD01BD03233D8F1E3CF4D
:1000E0003DC030C054EA5093BC005091BC0057FF53
:1000F000FCCF0895B093BB0054E85093BC005091DE
:10010000BC0057FFFCCF089554E95093BC000895FC
:1001100018E02227199BFECF36D0199B03C0089404
:10012000221F01C0220F1999FECF1A9599F7089541
:100130005FEF62ED72E07A95F1F76A95D9F75A951B
:10014000C1F708958BB18078803821F409E140E04F
:100150004BB9AECF0AE040E84BB9AACF43EF40938A
:1001600085004AEC4093840040E04093800045E0E5
:100170004093810046B340FFFDCF41E046BB40E0E5
:100180004093810092CF442746BD44E647BD4AE0F4
:1001900045BD45B341FFFDCF442745BD42E045BBCA
:0601A0000895F894FFCF62
:00000001FF
