:100000000C9434000C943E000C943E000C943E0082
:100010000C943E000C943E000C943E000C943E0068
:100020000C943E000C943E000C943E000C943E0058
:100030000C943E000C943E000C943E000C943E0048
:100040000C943E000C943E000C943E000C943E0038
:100050000C943E000C943E000C943E000C943E0028
:100060000C943E000C943E0011241FBECFEFD8E04C
:10007000DEBFCDBF0E9440000C94CE000C94000067
:10008000579A04E171E07DBB72E070936900789447
:1000900051E05093B9005CE05093B80054E05093A5
:1000A000BC00222733270130C8F40030C1F00A9584
:1000B00017D0B0E91DD0B32F1BD024D0219A299896
:1000C00035D0299A21981999FECF199BFECF1999FD
:1000D000FECF1CD0322F1AD019D0E5CF3CC030C093
:1000E00054EA5093BC005091BC0057FFFCCF0895D8
:1000F000B093BB0054E85093BC005091BC0057FF34
:10010000FCCF089554E95093BC00089518E02227CD
:10011000199BFECF35D0199B03C00894221F01C044
:10012000220F1999FECF1A9599F708955FEF62EDA6
:1001300072E07A95F1F76A95D9F75A95C1F7089563
:1001400004E18BB18078803819F440E04BB9B0CF2E
:1001500040E84BB9ADCF49EF4093850044EE409362
:10016000840040E04093800045E04093810046B326
:1001700040FFFDCF41E046BB40E04093810095CF7A
:10018000442746BD44E647BD4AE045BD45B341FF6F
:10019000FDCF442745BD42E045BB0895F894FFCF0D
:00000001FF
