:100000000C9434000C943E000C943E000C943E0082
:100010000C943E000C943E000C943E000C943E0068
:100020000C943E000C943E000C943E000C943E0058
:100030000C943E000C943E000C943E000C943E0048
:100040000C943E000C943E000C943E000C943E0038
:100050000C943E000C943E000C943E000C943E0028
:100060000C943E000C943E0011241FBECFEFD8E04C
:10007000DEBFCDBF0E9440000C94BB000C9400007A
:1000800071E07DBB72E070936900789451E0509309
:10009000B9005CE05093B80054E05093BC002227B4
:1000A000332746D015D0B0E91BD0B32F19D022D0BA
:1000B000219A299833D0299A21981999FECF199B12
:1000C000FECF1999FECF1AD0322F18D017D0E9CF12
:1000D00054EA5093BC005091BC0057FFFCCF0895E8
:1000E000B093BB0054E85093BC005091BC0057FF44
:1000F000FCCF089554E95093BC00089518E02227DE
:10010000199BFECF2AD0199B03C00894221F01C05F
:10011000220F1999FECF1A9599F708955FEF62EDB6
:1001200072E07A95F1F76A95D9F75A95C1F7089573
:1001300045E8409385004DEE4093840040E04093B5
:10014000800045E04093810046B340FFFDCF41E091
:1001500046BB40E0409381000895442746BD44E6F5
:1001600047BD4AE045BD45B341FFFDCF442745BDEE
:0A01700042E045BB0895F894FFCF6C
:00000001FF
